{
  "_format": "hh-sol-artifact-1",
  "contractName": "SubscriptionsFactory",
  "sourceName": "contracts/SubscriptionsFactory.sol",
  "abi": [
    {
      "inputs": [],
      "stateMutability": "nonpayable",
      "type": "constructor"
    },
    {
      "anonymous": false,
      "inputs": [
        {
          "indexed": true,
          "internalType": "address",
          "name": "collectionAddress",
          "type": "address"
        }
      ],
      "name": "CollectionDeleted",
      "type": "event"
    },
    {
      "anonymous": false,
      "inputs": [
        {
          "indexed": false,
          "internalType": "string",
          "name": "collectionName",
          "type": "string"
        },
        {
          "indexed": true,
          "internalType": "address",
          "name": "collectionAddress",
          "type": "address"
        },
        {
          "indexed": false,
          "internalType": "uint256[]",
          "name": "paymentAmounts",
          "type": "uint256[]"
        },
        {
          "indexed": false,
          "internalType": "int256[]",
          "name": "tiersSupply",
          "type": "int256[]"
        },
        {
          "indexed": false,
          "internalType": "uint256",
          "name": "paymentFrequency",
          "type": "uint256"
        },
        {
          "indexed": true,
          "internalType": "address",
          "name": "merchant",
          "type": "address"
        },
        {
          "indexed": false,
          "internalType": "string",
          "name": "baseUri",
          "type": "string"
        },
        {
          "indexed": false,
          "internalType": "uint256",
          "name": "startTimestamp",
          "type": "uint256"
        }
      ],
      "name": "NewCollectionCreated",
      "type": "event"
    },
    {
      "inputs": [
        {
          "internalType": "address",
          "name": "",
          "type": "address"
        },
        {
          "internalType": "uint256",
          "name": "",
          "type": "uint256"
        }
      ],
      "name": "collections",
      "outputs": [
        {
          "internalType": "address",
          "name": "",
          "type": "address"
        }
      ],
      "stateMutability": "view",
      "type": "function"
    },
    {
      "inputs": [
        {
          "internalType": "string",
          "name": "collectionName",
          "type": "string"
        },
        {
          "internalType": "uint256[]",
          "name": "paymentAmounts",
          "type": "uint256[]"
        },
        {
          "internalType": "int256[]",
          "name": "tiersTotalSupply",
          "type": "int256[]"
        },
        {
          "internalType": "uint256",
          "name": "paymentFrequency",
          "type": "uint256"
        },
        {
          "internalType": "address",
          "name": "merchant",
          "type": "address"
        },
        {
          "internalType": "string",
          "name": "baseUri",
          "type": "string"
        },
        {
          "internalType": "uint256",
          "name": "startTimestamp",
          "type": "uint256"
        }
      ],
      "name": "createCollection",
      "outputs": [
        {
          "internalType": "address",
          "name": "",
          "type": "address"
        }
      ],
      "stateMutability": "nonpayable",
      "type": "function"
    },
    {
      "inputs": [
        {
          "internalType": "address",
          "name": "collectionAddress",
          "type": "address"
        }
      ],
      "name": "deleteCollection",
      "outputs": [],
      "stateMutability": "nonpayable",
      "type": "function"
    },
    {
      "inputs": [
        {
          "internalType": "uint256",
          "name": "",
          "type": "uint256"
        }
      ],
      "name": "merchants",
      "outputs": [
        {
          "internalType": "address",
          "name": "",
          "type": "address"
        }
      ],
      "stateMutability": "view",
      "type": "function"
    }
  ],
  "bytecode": "0x608060405234801561001057600080fd5b50614b01806100206000396000f3fe60806040523480156200001157600080fd5b5060043610620000525760003560e01c80632ea6d5bd146200005757806349a764cd146200008a57806392c8823b14620000a1578063a6bb6cac14620000b8575b600080fd5b6200006e62000068366004620006bc565b620000d1565b6040516001600160a01b03909116815260200160405180910390f35b6200006e6200009b3660046200079c565b620001ee565b6200006e620000b2366004620007c9565b62000227565b620000cf620000c9366004620007e3565b62000252565b005b6000808888888888888830604051620000ea9062000536565b620000fd9897969594939291906200088d565b604051809103906000f0801580156200011a573d6000803e3d6000fd5b506001600160a01b0380871660008181526020818152604080832080546001818101835591855292842090920180549587166001600160a01b0319968716811790915582548084018455929093527fb10e2d527612073b26eecdfd717e6a320cf44b4afac2b0732d9fcbe2b7fa0cf690910180549094168317909355915192935083929091907f01a011de9f3c1db75429888d6c74f62362ded7621aea9c82ac5b0a7ea287fbb990620001d9908e908e908e908e908d908d906200091c565b60405180910390a39998505050505050505050565b600060205281600052604060002081815481106200020b57600080fd5b6000918252602090912001546001600160a01b03169150829050565b600181815481106200023857600080fd5b6000918252602090912001546001600160a01b0316905081565b60005b33600090815260208190526040902054811015620005325733600090815260208190526040902080546001600160a01b0384169190839081106200029d576200029d6200098b565b6000918252602090912001546001600160a01b0316036200051d573360009081526020819052604090208054620002d790600190620009b7565b81548110620002ea57620002ea6200098b565b600091825260208083209091015433835290829052604090912080546001600160a01b0390921691839081106200032557620003256200098b565b600091825260208083209190910180546001600160a01b0319166001600160a01b03949094169390931790925533815290819052604090208054806200036f576200036f620009d3565b6001900381819060005260206000200160006101000a8154906001600160a01b0302191690559055816001600160a01b03166383197ef06040518163ffffffff1660e01b8152600401600060405180830381600087803b158015620003d357600080fd5b505af1158015620003e8573d6000803e3d6000fd5b505033600090815260208190526040812054900391506200051d90505760005b6001548110156200051b57336001600160a01b0316600182815481106200043357620004336200098b565b6000918252602090912001546001600160a01b0316036200050657600180546200045f908290620009b7565b815481106200047257620004726200098b565b600091825260209091200154600180546001600160a01b039092169183908110620004a157620004a16200098b565b9060005260206000200160006101000a8154816001600160a01b0302191690836001600160a01b031602179055506001805480620004e357620004e3620009d3565b600082815260209020810160001990810180546001600160a01b03191690550190555b806200051281620009e9565b91505062000408565b505b806200052981620009e9565b91505062000255565b5050565b6140c68062000a0683390190565b634e487b7160e01b600052604160045260246000fd5b604051601f8201601f1916810167ffffffffffffffff8111828210171562000586576200058662000544565b604052919050565b600082601f830112620005a057600080fd5b813567ffffffffffffffff811115620005bd57620005bd62000544565b620005d2601f8201601f19166020016200055a565b818152846020838601011115620005e857600080fd5b816020850160208301376000918101602001919091529392505050565b600067ffffffffffffffff82111562000622576200062262000544565b5060051b60200190565b600082601f8301126200063e57600080fd5b8135602062000657620006518362000605565b6200055a565b82815260059290921b840181019181810190868411156200067757600080fd5b8286015b848110156200069457803583529183019183016200067b565b509695505050505050565b80356001600160a01b0381168114620006b757600080fd5b919050565b600080600080600080600060e0888a031215620006d857600080fd5b873567ffffffffffffffff80821115620006f157600080fd5b620006ff8b838c016200058e565b985060208a01359150808211156200071657600080fd5b620007248b838c016200062c565b975060408a01359150808211156200073b57600080fd5b620007498b838c016200062c565b965060608a013595506200076060808b016200069f565b945060a08a01359150808211156200077757600080fd5b50620007868a828b016200058e565b92505060c0880135905092959891949750929550565b60008060408385031215620007b057600080fd5b620007bb836200069f565b946020939093013593505050565b600060208284031215620007dc57600080fd5b5035919050565b600060208284031215620007f657600080fd5b62000801826200069f565b9392505050565b6000815180845260005b81811015620008305760208185018101518683018201520162000812565b506000602082860101526020601f19601f83011685010191505092915050565b600081518084526020808501945080840160005b83811015620008825781518752958201959082019060010162000864565b509495945050505050565b6000610100808352620008a38184018c62000808565b90508281036020840152620008b9818b62000850565b90508281036040840152620008cf818a62000850565b606084018990526001600160a01b03888116608086015284820360a0860152909150620008fd828862000808565b92508560c085015280851660e085015250509998505050505050505050565b60c0815260006200093160c083018962000808565b828103602084015262000945818962000850565b905082810360408401526200095b818862000850565b9050856060840152828103608084015262000977818662000808565b9150508260a0830152979650505050505050565b634e487b7160e01b600052603260045260246000fd5b634e487b7160e01b600052601160045260246000fd5b81810381811115620009cd57620009cd620009a1565b92915050565b634e487b7160e01b600052603160045260246000fd5b600060018201620009fe57620009fe620009a1565b506001019056fe60a0604052600060809081526003906200001a908262000666565b503480156200002857600080fd5b50604051620040c6380380620040c68339810160408190526200004b91620008b5565b826200005781620001b4565b50600f62000066898262000666565b5086516200007c9060069060208a01906200055a565b506007859055600880546001600160a01b0319166001600160a01b038681169190911790915560098390558751600a55600e8054610100600160a81b03191661010092841692909202919091179055620000e283620001c6602090811b62001ecb17901c565b60005b600a54811015620001a5576200011c816200010b83620001d460201b62001ed71760201c565b6200027860201b62001f691760201c565b6000818152600c60205260409020805460ff1916600117905586518790829081106200014c576200014c620009a7565b6020026020010151600b60008381526020019081526020016000206000600281106200017c576200017c620009a7565b01556000818152600b6020526040812060010155806200019c81620009bd565b915050620000e5565b50505050505050505062000aab565b6002620001c2828262000666565b5050565b6003620001c2828262000666565b60606000620001ee83620002db60201b62001fc61760201c565b60010190506000816001600160401b03811115620002105762000210620005c1565b6040519080825280601f01601f1916602001820160405280156200023b576020820181803683370190505b5090508181016020015b600019016f181899199a1a9b1b9c1cb0b131b232b360811b600a86061a8153600a85049450846200024557509392505050565b600082815260046020526040902062000292828262000666565b50817f6bb7ff708619ba0610cba295a58592e0451dee2622938c8755667688daf3529b620002c082620003c5565b604051620002cf9190620009e5565b60405180910390a25050565b6000807a184f03e93ff9f4daa797ed6e38ed64bf6a1f010000000000000000831062000325577a184f03e93ff9f4daa797ed6e38ed64bf6a1f010000000000000000830492506040015b6d04ee2d6d415b85acef8100000000831062000352576d04ee2d6d415b85acef8100000000830492506020015b662386f26fc1000083106200037157662386f26fc10000830492506010015b6305f5e10083106200038a576305f5e100830492506008015b61271083106200039f57612710830492506004015b60648310620003b2576064830492506002015b600a8310620003bf576001015b92915050565b600081815260046020526040812080546060929190620003e590620005d7565b80601f01602080910402602001604051908101604052809291908181526020018280546200041390620005d7565b8015620004645780601f10620004385761010080835404028352916020019162000464565b820191906000526020600020905b8154815290600101906020018083116200044657829003601f168201915b50505050509050600081511162000491576200048b83620004be60201b6200209e1760201c565b620004b7565b600381604051602001620004a792919062000a1a565b6040516020818303038152906040525b9392505050565b606060028054620004cf90620005d7565b80601f0160208091040260200160405190810160405280929190818152602001828054620004fd90620005d7565b80156200054e5780601f1062000522576101008083540402835291602001916200054e565b820191906000526020600020905b8154815290600101906020018083116200053057829003601f168201915b50505050509050919050565b82805482825590600052602060002090810192821562000598579160200282015b82811115620005985782518255916020019190600101906200057b565b50620005a6929150620005aa565b5090565b5b80821115620005a65760008155600101620005ab565b634e487b7160e01b600052604160045260246000fd5b600181811c90821680620005ec57607f821691505b6020821081036200060d57634e487b7160e01b600052602260045260246000fd5b50919050565b601f8211156200066157600081815260208120601f850160051c810160208610156200063c5750805b601f850160051c820191505b818110156200065d5782815560010162000648565b5050505b505050565b81516001600160401b03811115620006825762000682620005c1565b6200069a81620006938454620005d7565b8462000613565b602080601f831160018114620006d25760008415620006b95750858301515b600019600386901b1c1916600185901b1785556200065d565b600085815260208120601f198616915b828110156200070357888601518255948401946001909101908401620006e2565b5085821015620007225787850151600019600388901b60f8161c191681555b5050505050600190811b01905550565b604051601f8201601f191681016001600160401b03811182821017156200075d576200075d620005c1565b604052919050565b60005b838110156200078257818101518382015260200162000768565b50506000910152565b600082601f8301126200079d57600080fd5b81516001600160401b03811115620007b957620007b9620005c1565b620007ce601f8201601f191660200162000732565b818152846020838601011115620007e457600080fd5b620007f782602083016020870162000765565b949350505050565b60006001600160401b038211156200081b576200081b620005c1565b5060051b60200190565b600082601f8301126200083757600080fd5b81516020620008506200084a83620007ff565b62000732565b82815260059290921b840181019181810190868411156200087057600080fd5b8286015b848110156200088d578051835291830191830162000874565b509695505050505050565b80516001600160a01b0381168114620008b057600080fd5b919050565b600080600080600080600080610100898b031215620008d357600080fd5b88516001600160401b0380821115620008eb57600080fd5b620008f98c838d016200078b565b995060208b01519150808211156200091057600080fd5b6200091e8c838d0162000825565b985060408b01519150808211156200093557600080fd5b620009438c838d0162000825565b975060608b015196506200095a60808c0162000898565b955060a08b01519150808211156200097157600080fd5b50620009808b828c016200078b565b93505060c089015191506200099860e08a0162000898565b90509295985092959890939650565b634e487b7160e01b600052603260045260246000fd5b600060018201620009de57634e487b7160e01b600052601160045260246000fd5b5060010190565b602081526000825180602084015262000a0681604085016020870162000765565b601f01601f19169190910160400192915050565b600080845462000a2a81620005d7565b6001828116801562000a45576001811462000a5b5762000a8c565b60ff198416875282151583028701945062000a8c565b8860005260208060002060005b8581101562000a835781548a82015290840190820162000a68565b50505082870194505b50505050835162000aa281836020880162000765565b01949350505050565b61360b8062000abb6000396000f3fe6080604052600436106101f85760003560e01c806383197ef01161010d578063a8ce9fa6116100a0578063e3c704a11161006f578063e3c704a114610594578063e5326ab1146105b4578063e985e9c5146105c9578063f242432a14610612578063fd5116f31461062d57600080fd5b8063a8ce9fa61461052e578063abf244e914610543578063af5a752114610561578063d71bb37b1461058157600080fd5b806390eca426116100dc57806390eca426146104b6578063a0f6b3c9146104d9578063a22cb465146104ee578063a6be280c1461050e57600080fd5b806383197ef014610429578063832bcb021461043e57806385ebd1b81461045e5780638a6e536f1461049657600080fd5b8063326687b91161019057806369083c5c1161015f57806369083c5c146103935780636e763777146103b35780636f5a6c90146103d357806371a2facc146103f357806371e1a89a1461042157600080fd5b8063326687b91461032657806340c10f19146103405780634e1273f4146103535780635a6620b51461037357600080fd5b80630e89341c116101cc5780630e89341c14610299578063252a8875146102c65780632a74111c146102e65780632eb2c2d61461030657600080fd5b8062fdd58e146101fd57806301ffc9a71461023057806302f73f2d146102605780630a4740ff14610282575b600080fd5b34801561020957600080fd5b5061021d610218366004612b2a565b61065d565b6040519081526020015b60405180910390f35b34801561023c57600080fd5b5061025061024b366004612b6a565b6106f6565b6040519015158152602001610227565b34801561026c57600080fd5b50610275610701565b6040516102279190612bc2565b34801561028e57600080fd5b506102976107bb565b005b3480156102a557600080fd5b506102b96102b4366004612bd5565b6107cf565b6040516102279190612c3e565b3480156102d257600080fd5b5061021d6102e1366004612bd5565b6108af565b3480156102f257600080fd5b50610250610301366004612c51565b6108e2565b34801561031257600080fd5b50610297610321366004612dc6565b6108f9565b34801561033257600080fd5b50600e546102509060ff1681565b61029761034e366004612b2a565b61098c565b34801561035f57600080fd5b5061027561036e366004612e6f565b610cdd565b34801561037f57600080fd5b5061021d61038e366004612c51565b610e06565b34801561039f57600080fd5b506102976103ae366004612f39565b610e43565b3480156103bf57600080fd5b506102756103ce366004612f75565b6110a0565b3480156103df57600080fd5b5061021d6103ee36600461304a565b61123a565b3480156103ff57600080fd5b5061041361040e36600461306d565b61127c565b604051610227929190613088565b6102976113d2565b34801561043557600080fd5b50610297611511565b34801561044a57600080fd5b506102976104593660046130df565b6116a3565b34801561046a57600080fd5b5061047e610479366004612c51565b611714565b6040516001600160a01b039091168152602001610227565b3480156104a257600080fd5b506102976104b1366004612c51565b611753565b3480156104c257600080fd5b506104cb61189d565b6040516102279291906130fa565b3480156104e557600080fd5b5061021d6119e4565b3480156104fa57600080fd5b50610297610509366004613128565b611a2d565b34801561051a57600080fd5b50610297610529366004612b2a565b611a3c565b34801561053a57600080fd5b5061021d611abe565b34801561054f57600080fd5b506008546001600160a01b031661047e565b34801561056d57600080fd5b5061029761057c366004612bd5565b611aea565b61029761058f366004612bd5565b611b8b565b3480156105a057600080fd5b506102976105af366004613152565b611cfe565b3480156105c057600080fd5b506102b9611e3d565b3480156105d557600080fd5b506102506105e4366004613186565b6001600160a01b03918216600090815260016020908152604080832093909416825291909152205460ff1690565b34801561061e57600080fd5b506102976103213660046131b0565b34801561063957600080fd5b50610250610648366004612bd5565b6000908152600c602052604090205460ff1690565b60006001600160a01b0383166106cd5760405162461bcd60e51b815260206004820152602a60248201527f455243313135353a2061646472657373207a65726f206973206e6f742061207660448201526930b634b21037bbb732b960b11b60648201526084015b60405180910390fd5b506000818152602081815260408083206001600160a01b03861684529091529020545b92915050565b60006106f082612132565b6060600061070d6119e4565b6001600160401b0381111561072457610724612c7d565b60405190808252806020026020018201604052801561074d578160200160208202803683370190505b5090506000805b600a548110156107b3576000818152600c602052604090205460ff16156107a1578083838151811061078857610788613214565b60209081029190910101528161079d81613240565b9250505b806107ab81613240565b915050610754565b509092915050565b6107c3612182565b600e805460ff19169055565b6000818152600460205260408120805460609291906107ed90613259565b80601f016020809104026020016040519081016040528092919081815260200182805461081990613259565b80156108665780601f1061083b57610100808354040283529160200191610866565b820191906000526020600020905b81548152906001019060200180831161084957829003601f168201915b5050505050905060008151116108845761087f8361209e565b6108a8565b60038160405160200161089892919061328d565b6040516020818303038152906040525b9392505050565b6000816108bb81612216565b600683815481106108ce576108ce613214565b906000526020600020015491505b50919050565b600060016108f0838561065d565b10159392505050565b6001600160a01b038516331480610915575061091585336105e4565b6109785760405162461bcd60e51b815260206004820152602e60248201527f455243313135353a2063616c6c6572206973206e6f7420746f6b656e206f776e60448201526d195c881bdc88185c1c1c9bdd995960921b60648201526084016106c4565b61098585858585856122c3565b5050505050565b8061099681612216565b600682815481106109a9576109a9613214565b9060005260206000200154341015610a425760405162461bcd60e51b815260206004820152605060248201527f537562736372697074696f6e73436f6c6c656374696f6e3a20796f75206d757360448201527f74206d616b6520746865206669727374207061796d656e7420746f207374617260648201526f3a10309039bab139b1b934b83a34b7b760811b608482015260a4016106c4565b600954421015610ab15760405162461bcd60e51b815260206004820152603460248201527f537562736372697074696f6e73436f6c6c656374696f6e3a204d696e74696e67604482015273081a185cc81b9bdd081cdd185c9d1959081e595d60621b60648201526084016106c4565b6001600160a01b038316610b415760405162461bcd60e51b815260206004820152604b60248201527f537562736372697074696f6e73436f6c6c656374696f6e3a2063616e6e6f742060448201527f737461727420737562736372697074696f6e20746f776172647320746865207a60648201526a65726f206164647265737360a81b608482015260a4016106c4565b6000828152600b60205260409020546000191480610b7257506000828152600b602052604090208054600190910154125b610bf25760405162461bcd60e51b8152602060048201526044602482018190527f537562736372697074696f6e436f6c6c656374696f6e3a206e6f206d6f726520908201527f737562736372697074696f6e7320617661696c61626c6520696e2074686973206064820152633a34b2b960e11b608482015260a4016106c4565b6000828152600b6020526040902060019081016000828254610c149190613314565b90915550506008546040516001600160a01b03909116903480156108fc02916000818181858888f19350505050158015610c52573d6000803e3d6000fd5b50600060075442610c639190613334565b6001600160a01b03851660008181526005602090815260408083208884528252918290208481559151848152939450909286917f45186d65430fba104c190689acba467e295f9ed9cfe6882e63f77846fea43d19910160405180910390a3610985858560016040518060200160405280600081525061237d565b60608151835114610d425760405162461bcd60e51b815260206004820152602960248201527f455243313135353a206163636f756e747320616e6420696473206c656e677468604482015268040dad2e6dac2e8c6d60bb1b60648201526084016106c4565b600083516001600160401b03811115610d5d57610d5d612c7d565b604051908082528060200260200182016040528015610d86578160200160208202803683370190505b50905060005b8451811015610dfe57610dd1858281518110610daa57610daa613214565b6020026020010151858381518110610dc457610dc4613214565b602002602001015161065d565b828281518110610de357610de3613214565b6020908102919091010152610df781613240565b9050610d8c565b509392505050565b60008282610e148282612491565b6001600160a01b038416600090815260056020908152604080832088845290915290205492505b505092915050565b8181610e4f8282612491565b83610e5981612216565b6001600160a01b0384811660008181526005602090815260408083208a845282529182902082518084019093528054835260010154909316928101929092523390811480610ebc575081602001516001600160a01b0316816001600160a01b0316145b610f645760405162461bcd60e51b815260206004820152606760248201527f537562736372697074696f6e73436f6c6c656374696f6e3a206f6e6c7920537560448201527f62736372697074696f6e207265636569766572206f7220617070726f7665642060648201527f616464726573732063616e207472616e7366657220737562736372697074696f60848201526637103a37b5b2b760c91b60a482015260c4016106c4565b6008546001600160a01b0390811690891603610fe85760405162461bcd60e51b815260206004820152603f60248201527f537562736372697074696f6e73436f6c6c656374696f6e3a2043616e6e6f742060448201527f7472616e7366657220746f20537562736372697074696f6e206973737565720060648201526084016106c4565b876001600160a01b0316866001600160a01b0316887f2699e32b57438dc17053678ffe83b4aeb0827a22643d547c331809705651748b60405160405180910390a46001600160a01b0380891660009081526005602081815260408084208c8552825280842087518155948b1684529181528183208b84528152818320838155600190810180546001600160a01b031916905582519182019092529182526110959189918c918c9190612523565b505050505050505050565b60606110aa612182565b600083516001600160401b038111156110c5576110c5612c7d565b6040519080825280602002602001820160405280156110ee578160200160208202803683370190505b50905060005b84518110156111e057600685828151811061111157611111613214565b6020908102919091018101518254600181018455600093845291832090910155600a5461113e9083613334565b905084828151811061115257611152613214565b6020026020010151600b600083815260200190815260200160002060006002811061117f5761117f613214565b01556000818152600b60205260408120600101556000818152600c60205260409020805460ff19166001179055825181908490849081106111c2576111c2613214565b602090810291909101015250806111d881613240565b9150506110f4565b508351600a60008282546111f49190613334565b90915550506040517fc11fdd7e099a33ade57e6af8997240d9d65a472b13d00d63d149d3012c8027b19061122b90869084906130fa565b60405180910390a19392505050565b60008261124681612216565b82611262576000848152600b6020526040902060010154611272565b6000848152600b60205260409020545b91505b5092915050565b60608060006112896119e4565b6001600160401b038111156112a0576112a0612c7d565b6040519080825280602002602001820160405280156112c9578160200160208202803683370190505b50905060006112d66119e4565b6001600160401b038111156112ed576112ed612c7d565b604051908082528060200260200182016040528015611316578160200160208202803683370190505b5090506000805b600a548110156113c6576000818152600c602052604090205460ff16156113b4578084838151811061135157611351613214565b60200260200101818152505086611379576000818152600b6020526040902060010154611389565b6000818152600b60205260409020545b83838151811061139b5761139b613214565b6020908102919091010152816113b081613240565b9250505b806113be81613240565b91505061131d565b50919590945092505050565b600e5460ff166113f45760405162461bcd60e51b81526004016106c490613347565b600d5434101561147e5760405162461bcd60e51b815260206004820152604960248201527f537562736372697074696f6e73436f6c6c656374696f6e3a20796f75206d757360448201527f7420706179207468652070726963652073706563696669656420627920746865606482015268081b595c98da185b9d60ba1b608482015260a4016106c4565b600854604080516001600160a01b0390921682523360208301527f0746d0e26fdf82aa1a1fe7b2b7b08f9c05ef1523bc5fd39e071137434681b462910160405180910390a16008546040516001600160a01b03909116903480156108fc02916000818181858888f193505050501580156114fc573d6000803e3d6000fd5b50600880546001600160a01b03191633179055565b600e5461010090046001600160a01b031633146115bc5760405162461bcd60e51b815260206004820152605a60248201527f537562736372697074696f6e73436f6c6c656374696f6e3a207573652074686560448201527f20666163746f72792064656c657465436f6c6c656374696f6e2066756e63746960648201527f6f6e20746f2064657374726f79206120636f6c6c656374696f6e000000000000608482015260a4016106c4565b60006115c6610701565b905060005b8151811015611694576115f88282815181106115e9576115e9613214565b6020026020010151600061123a565b156116825760405162461bcd60e51b815260206004820152604e60248201527f537562736372697074696f6e73436f6c6c656374696f6e3a2063616e6e6f742060448201527f64657374726f79206120636f6c6c656374696f6e20776974682061637469766560648201526d20737562736372697074696f6e7360901b608482015260a4016106c4565b8061168c81613240565b9150506115cb565b506008546001600160a01b0316ff5b6116ab612182565b600854604080516001600160a01b03928316815291831660208301527f0746d0e26fdf82aa1a1fe7b2b7b08f9c05ef1523bc5fd39e071137434681b462910160405180910390a1600880546001600160a01b0319166001600160a01b0392909216919091179055565b600082826117228282612491565b5050506001600160a01b03908116600090815260056020908152604080832094835293905291909120600101541690565b818161175f8282612491565b6001600160a01b038084166000908152600560209081526040808320888452825291829020825180840190935280548084526001909101549093169082015290421161180b5760405162461bcd60e51b815260206004820152603560248201527f537562736372697074696f6e73436f6c6c656374696f6e3a20537562736372696044820152741c1d1a5bdb881b9bdd08195e1c1a5c9959081e595d605a1b60648201526084016106c4565b6001600160a01b038416600081815260056020908152604080832089845290915280822082815560010180546001600160a01b03191690555187917fdf9634ec6ca7de6038aef1a5217876b84c27a43e82e6e9ce3d901f2b56a9aec591a36000858152600b602052604090206001908101600082825461188b91906133a4565b909155506109859050848660016126c3565b60608060006118aa6119e4565b6001600160401b038111156118c1576118c1612c7d565b6040519080825280602002602001820160405280156118ea578160200160208202803683370190505b50905060006118f76119e4565b6001600160401b0381111561190e5761190e612c7d565b604051908082528060200260200182016040528015611937578160200160208202803683370190505b5090506000805b600a548110156119d9576000818152600c602052604090205460ff16156119c7578084838151811061197257611972613214565b6020026020010181815250506006818154811061199157611991613214565b90600052602060002001548383815181106119ae576119ae613214565b6020908102919091010152816119c381613240565b9250505b806119d181613240565b91505061193e565b509194909350915050565b6000805b600a54811015611a29576000818152600c602052604090205460ff1615611a175781611a1381613240565b9250505b80611a2181613240565b9150506119e8565b5090565b611a3833838361283f565b5050565b8033611a488282612491565b82611a5281612216565b33600081815260056020908152604080832088845290915280822060010180546001600160a01b0319166001600160a01b038a169081179091559051879284917f6b6d5f926c5cfe8df9eae52da37adaedecadea14e148ed31125dd1d79decd7a19190a4505050505050565b600e5460009060ff16611ae35760405162461bcd60e51b81526004016106c490613347565b50600d5490565b611af2612182565b60008111611b795760405162461bcd60e51b815260206004820152604860248201527f537562736372697074696f6e73436f6c6c656374696f6e3a207573652074726160448201527f6e736665724d65726368616e7452696768747320696620746865207072696365606482015267206973207a65726f60c01b608482015260a4016106c4565b600d55600e805460ff19166001179055565b8033611b978282612491565b82611ba181612216565b60068481548110611bb457611bb4613214565b9060005260206000200154341015611c5a5760405162461bcd60e51b815260206004820152605760248201527f537562736372697074696f6e73436f6c6c656374696f6e3a20796f75206d757360448201527f74207061792074686520737562736372697074696f6e20707269636520746f2060648201527f72656e657720796f757220737562736372697074696f6e000000000000000000608482015260a4016106c4565b6008546040516001600160a01b03909116903480156108fc02916000818181858888f19350505050158015611c93573d6000803e3d6000fd5b5033600090815260056020908152604080832087845290915290206007548154611cbd9190613334565b808255604051908152339086907f45186d65430fba104c190689acba467e295f9ed9cfe6882e63f77846fea43d199060200160405180910390a35050505050565b611d06612182565b60005b8151811015611e0257611d278282815181106115e9576115e9613214565b15611daa5760405162461bcd60e51b815260206004820152604760248201527f537562736372697074696f6e73436f6c6c656374696f6e3a2063616e2774206460448201527f697361626c652061207469657220776974682061637469766520737562736372606482015266697074696f6e7360c81b608482015260a4016106c4565b6000600c6000848481518110611dc257611dc2613214565b6020026020010151815260200190815260200160002060006101000a81548160ff0219169083151502179055508080611dfa90613240565b915050611d09565b507f816e7f84f70612ae947d90f26ee2523e5aaeb4afa26ac07f8b4435fe7919c63481604051611e329190612bc2565b60405180910390a150565b600f8054611e4a90613259565b80601f0160208091040260200160405190810160405280929190818152602001828054611e7690613259565b8015611ec35780601f10611e9857610100808354040283529160200191611ec3565b820191906000526020600020905b815481529060010190602001808311611ea657829003601f168201915b505050505081565b6003611a38828261340f565b60606000611ee483611fc6565b60010190506000816001600160401b03811115611f0357611f03612c7d565b6040519080825280601f01601f191660200182016040528015611f2d576020820181803683370190505b5090508181016020015b600019016f181899199a1a9b1b9c1cb0b131b232b360811b600a86061a8153600a8504945084611f3757509392505050565b6000828152600460205260409020611f81828261340f565b50817f6bb7ff708619ba0610cba295a58592e0451dee2622938c8755667688daf3529b611fad846107cf565b604051611fba9190612c3e565b60405180910390a25050565b60008072184f03e93ff9f4daa797ed6e38ed64bf6a1f0160401b83106120055772184f03e93ff9f4daa797ed6e38ed64bf6a1f0160401b830492506040015b6d04ee2d6d415b85acef81000000008310612031576d04ee2d6d415b85acef8100000000830492506020015b662386f26fc10000831061204f57662386f26fc10000830492506010015b6305f5e1008310612067576305f5e100830492506008015b612710831061207b57612710830492506004015b6064831061208d576064830492506002015b600a83106106f05760010192915050565b6060600280546120ad90613259565b80601f01602080910402602001604051908101604052809291908181526020018280546120d990613259565b80156121265780601f106120fb57610100808354040283529160200191612126565b820191906000526020600020905b81548152906001019060200180831161210957829003601f168201915b50505050509050919050565b60006001600160e01b03198216636cdb3d1360e11b148061216357506001600160e01b031982166303a24d0760e21b145b806106f057506301ffc9a760e01b6001600160e01b03198316146106f0565b6008546001600160a01b031633146122145760405162461bcd60e51b815260206004820152604960248201527f537562736372697074696f6e73436f6c6c656374696f6e3a207468697320667560448201527f6e6374696f6e2063616e2062652063616c6c6564206f6e6c7920627920746865606482015268081b595c98da185b9d60ba1b608482015260a4016106c4565b565b6000818152600c602052604090205460ff166122c05760405162461bcd60e51b815260206004820152605c60248201527f537562736372697074696f6e73436f6c6c656374696f6e3a207370656369666960448201527f656420737562736372697074696f6e207469657220646f6573206e6f7420657860648201527f697374206f72206973206e6f742061637469766520616e796d6f726500000000608482015260a4016106c4565b50565b60405162461bcd60e51b815260206004820152607960248201527f537562736372697074696f6e73436f6c6c656374696f6e3a2063616e6e6f742060448201527f6172626974726172696c79207472616e7366657220737562736372697074696f60648201527f6e20746f6b656e733b20757365207472616e736665725375627363726970746960848201527f6f6e546f6b656e2066756e6374696f6e20696e73746561642e0000000000000060a482015260c4016106c4565b6001600160a01b0384166123dd5760405162461bcd60e51b815260206004820152602160248201527f455243313135353a206d696e7420746f20746865207a65726f206164647265736044820152607360f81b60648201526084016106c4565b3360006123e98561291f565b905060006123f68561291f565b90506000868152602081815260408083206001600160a01b038b16845290915281208054879290612428908490613334565b909155505060408051878152602081018790526001600160a01b03808a1692600092918716917fc3d58168c5ae7397731d063d5bbf3d657854427343f4c083240f7aacaa2d0f62910160405180910390a461248883600089898989612972565b50505050505050565b61249b82826108e2565b611a385760405162461bcd60e51b815260206004820152604d60248201527f537562736372697074696f6e73436f6c6c656374696f6e3a205370656369666960448201527f656420746f6b656e206d75737420626520616e2061637469766520737562736360648201526c3934b83a34b7b7103a37b5b2b760991b608482015260a4016106c4565b6001600160a01b0384166125875760405162461bcd60e51b815260206004820152602560248201527f455243313135353a207472616e7366657220746f20746865207a65726f206164604482015264647265737360d81b60648201526084016106c4565b3360006125938561291f565b905060006125a08561291f565b90506000868152602081815260408083206001600160a01b038c168452909152902054858110156126265760405162461bcd60e51b815260206004820152602a60248201527f455243313135353a20696e73756666696369656e742062616c616e636520666f60448201526939103a3930b739b332b960b11b60648201526084016106c4565b6000878152602081815260408083206001600160a01b038d8116855292528083208985039055908a16825281208054889290612663908490613334565b909155505060408051888152602081018890526001600160a01b03808b16928c821692918816917fc3d58168c5ae7397731d063d5bbf3d657854427343f4c083240f7aacaa2d0f62910160405180910390a4611095848a8a8a8a8a612972565b6001600160a01b0383166127255760405162461bcd60e51b815260206004820152602360248201527f455243313135353a206275726e2066726f6d20746865207a65726f206164647260448201526265737360e81b60648201526084016106c4565b3360006127318461291f565b9050600061273e8461291f565b60408051602080820183526000918290528882528181528282206001600160a01b038b16835290522054909150848110156127c75760405162461bcd60e51b8152602060048201526024808201527f455243313135353a206275726e20616d6f756e7420657863656564732062616c604482015263616e636560e01b60648201526084016106c4565b6000868152602081815260408083206001600160a01b038b81168086529184528285208a8703905582518b81529384018a90529092908816917fc3d58168c5ae7397731d063d5bbf3d657854427343f4c083240f7aacaa2d0f62910160405180910390a4604080516020810190915260009052612488565b816001600160a01b0316836001600160a01b0316036128b25760405162461bcd60e51b815260206004820152602960248201527f455243313135353a2073657474696e6720617070726f76616c20737461747573604482015268103337b91039b2b63360b91b60648201526084016106c4565b6001600160a01b03838116600081815260016020908152604080832094871680845294825291829020805460ff191686151590811790915591519182527f17307eab39ab6107e8899845ad3d59bd9653f200f220920489ca2b5937696c31910160405180910390a3505050565b6040805160018082528183019092526060916000919060208083019080368337019050509050828160008151811061295957612959613214565b602090810291909101015292915050565b505050505050565b6001600160a01b0384163b1561296a5760405163f23a6e6160e01b81526001600160a01b0385169063f23a6e61906129b690899089908890889088906004016134ce565b6020604051808303816000875af19250505080156129f1575060408051601f3d908101601f191682019092526129ee91810190613513565b60015b612a9d576129fd613530565b806308c379a003612a365750612a1161354c565b80612a1c5750612a38565b8060405162461bcd60e51b81526004016106c49190612c3e565b505b60405162461bcd60e51b815260206004820152603460248201527f455243313135353a207472616e7366657220746f206e6f6e2d455243313135356044820152732932b1b2b4bb32b91034b6b83632b6b2b73a32b960611b60648201526084016106c4565b6001600160e01b0319811663f23a6e6160e01b146124885760405162461bcd60e51b815260206004820152602860248201527f455243313135353a204552433131353552656365697665722072656a656374656044820152676420746f6b656e7360c01b60648201526084016106c4565b80356001600160a01b0381168114612b2557600080fd5b919050565b60008060408385031215612b3d57600080fd5b612b4683612b0e565b946020939093013593505050565b6001600160e01b0319811681146122c057600080fd5b600060208284031215612b7c57600080fd5b81356108a881612b54565b600081518084526020808501945080840160005b83811015612bb757815187529582019590820190600101612b9b565b509495945050505050565b6020815260006108a86020830184612b87565b600060208284031215612be757600080fd5b5035919050565b60005b83811015612c09578181015183820152602001612bf1565b50506000910152565b60008151808452612c2a816020860160208601612bee565b601f01601f19169290920160200192915050565b6020815260006108a86020830184612c12565b60008060408385031215612c6457600080fd5b82359150612c7460208401612b0e565b90509250929050565b634e487b7160e01b600052604160045260246000fd5b601f8201601f191681016001600160401b0381118282101715612cb857612cb8612c7d565b6040525050565b60006001600160401b03821115612cd857612cd8612c7d565b5060051b60200190565b600082601f830112612cf357600080fd5b81356020612d0082612cbf565b604051612d0d8282612c93565b83815260059390931b8501820192828101915086841115612d2d57600080fd5b8286015b84811015612d485780358352918301918301612d31565b509695505050505050565b600082601f830112612d6457600080fd5b81356001600160401b03811115612d7d57612d7d612c7d565b604051612d94601f8301601f191660200182612c93565b818152846020838601011115612da957600080fd5b816020850160208301376000918101602001919091529392505050565b600080600080600060a08688031215612dde57600080fd5b612de786612b0e565b9450612df560208701612b0e565b935060408601356001600160401b0380821115612e1157600080fd5b612e1d89838a01612ce2565b94506060880135915080821115612e3357600080fd5b612e3f89838a01612ce2565b93506080880135915080821115612e5557600080fd5b50612e6288828901612d53565b9150509295509295909350565b60008060408385031215612e8257600080fd5b82356001600160401b0380821115612e9957600080fd5b818501915085601f830112612ead57600080fd5b81356020612eba82612cbf565b604051612ec78282612c93565b83815260059390931b8501820192828101915089841115612ee757600080fd5b948201945b83861015612f0c57612efd86612b0e565b82529482019490820190612eec565b96505086013592505080821115612f2257600080fd5b50612f2f85828601612ce2565b9150509250929050565b600080600060608486031215612f4e57600080fd5b612f5784612b0e565b925060208401359150612f6c60408501612b0e565b90509250925092565b60008060408385031215612f8857600080fd5b82356001600160401b0380821115612f9f57600080fd5b612fab86838701612ce2565b9350602091508185013581811115612fc257600080fd5b85019050601f81018613612fd557600080fd5b8035612fe081612cbf565b604051612fed8282612c93565b82815260059290921b830184019184810191508883111561300d57600080fd5b928401925b8284101561302b57833582529284019290840190613012565b80955050505050509250929050565b80358015158114612b2557600080fd5b6000806040838503121561305d57600080fd5b82359150612c746020840161303a565b60006020828403121561307f57600080fd5b6108a88261303a565b60408152600061309b6040830185612b87565b82810360208481019190915284518083528582019282019060005b818110156130d2578451835293830193918301916001016130b6565b5090979650505050505050565b6000602082840312156130f157600080fd5b6108a882612b0e565b60408152600061310d6040830185612b87565b828103602084015261311f8185612b87565b95945050505050565b6000806040838503121561313b57600080fd5b61314483612b0e565b9150612c746020840161303a565b60006020828403121561316457600080fd5b81356001600160401b0381111561317a57600080fd5b61127284828501612ce2565b6000806040838503121561319957600080fd5b6131a283612b0e565b9150612c7460208401612b0e565b600080600080600060a086880312156131c857600080fd5b6131d186612b0e565b94506131df60208701612b0e565b9350604086013592506060860135915060808601356001600160401b0381111561320857600080fd5b612e6288828901612d53565b634e487b7160e01b600052603260045260246000fd5b634e487b7160e01b600052601160045260246000fd5b6000600182016132525761325261322a565b5060010190565b600181811c9082168061326d57607f821691505b6020821081036108dc57634e487b7160e01b600052602260045260246000fd5b600080845461329b81613259565b600182811680156132b357600181146132c8576132f7565b60ff19841687528215158302870194506132f7565b8860005260208060002060005b858110156132ee5781548a8201529084019082016132d5565b50505082870194505b50505050835161330b818360208801612bee565b01949350505050565b8082018281126000831280158216821582161715610e3b57610e3b61322a565b808201808211156106f0576106f061322a565b6020808252603f908201527f537562736372697074696f6e73436f6c6c656374696f6e3a206d65726368616e60408201527f74206973206e6f742073656c6c696e672074686520636f6c6c656374696f6e00606082015260800190565b81810360008312801583831316838312821617156112755761127561322a565b601f82111561340a57600081815260208120601f850160051c810160208610156133eb5750805b601f850160051c820191505b8181101561296a578281556001016133f7565b505050565b81516001600160401b0381111561342857613428612c7d565b61343c816134368454613259565b846133c4565b602080601f83116001811461347157600084156134595750858301515b600019600386901b1c1916600185901b17855561296a565b600085815260208120601f198616915b828110156134a057888601518255948401946001909101908401613481565b50858210156134be5787850151600019600388901b60f8161c191681555b5050505050600190811b01905550565b6001600160a01b03868116825285166020820152604081018490526060810183905260a06080820181905260009061350890830184612c12565b979650505050505050565b60006020828403121561352557600080fd5b81516108a881612b54565b600060033d11156135495760046000803e5060005160e01c5b90565b600060443d101561355a5790565b6040516003193d81016004833e81513d6001600160401b03816024840111818411171561358957505050505090565b82850191508151818111156135a15750505050505090565b843d87010160208285010111156135bb5750505050505090565b6135ca60208286010187612c93565b50909594505050505056fea26469706673582212204a03e7cb29ff8383a121e4069364d431fc9ad1b16f9229364f042910f582946e64736f6c63430008110033a264697066735822122034622525946de2697c4b44e8255d0093eca0f5724002da2d09a0e4659de770a064736f6c63430008110033",
  "linkReferences": {},
  "deployedLinkReferences": {}
}